{
  "_format": "hh-sol-artifact-1",
  "contractName": "AvacadoRouter",
  "sourceName": "contracts/AvacadoRouter.sol",
  "abi": [
    {
      "inputs": [
        {
          "internalType": "address",
          "name": "_factory",
          "type": "address"
        },
        {
          "internalType": "address",
          "name": "_WAVAX",
          "type": "address"
        }
      ],
      "stateMutability": "nonpayable",
      "type": "constructor"
    },
    {
      "inputs": [],
      "name": "WAVAX",
      "outputs": [
        {
          "internalType": "address",
          "name": "",
          "type": "address"
        }
      ],
      "stateMutability": "view",
      "type": "function"
    },
    {
      "inputs": [
        {
          "internalType": "address",
          "name": "tokenA",
          "type": "address"
        },
        {
          "internalType": "address",
          "name": "tokenB",
          "type": "address"
        },
        {
          "internalType": "uint256",
          "name": "amountADesired",
          "type": "uint256"
        },
        {
          "internalType": "uint256",
          "name": "amountBDesired",
          "type": "uint256"
        },
        {
          "internalType": "uint256",
          "name": "amountAMin",
          "type": "uint256"
        },
        {
          "internalType": "uint256",
          "name": "amountBMin",
          "type": "uint256"
        },
        {
          "internalType": "address",
          "name": "to",
          "type": "address"
        },
        {
          "internalType": "uint256",
          "name": "deadline",
          "type": "uint256"
        }
      ],
      "name": "addLiquidity",
      "outputs": [
        {
          "internalType": "uint256",
          "name": "amountA",
          "type": "uint256"
        },
        {
          "internalType": "uint256",
          "name": "amountB",
          "type": "uint256"
        },
        {
          "internalType": "uint256",
          "name": "liquidity",
          "type": "uint256"
        }
      ],
      "stateMutability": "nonpayable",
      "type": "function"
    },
    {
      "inputs": [
        {
          "internalType": "address",
          "name": "token",
          "type": "address"
        },
        {
          "internalType": "uint256",
          "name": "amountTokenDesired",
          "type": "uint256"
        },
        {
          "internalType": "uint256",
          "name": "amountTokenMin",
          "type": "uint256"
        },
        {
          "internalType": "uint256",
          "name": "amountAVAXMin",
          "type": "uint256"
        },
        {
          "internalType": "address",
          "name": "to",
          "type": "address"
        },
        {
          "internalType": "uint256",
          "name": "deadline",
          "type": "uint256"
        }
      ],
      "name": "addLiquidityAVAX",
      "outputs": [
        {
          "internalType": "uint256",
          "name": "amountToken",
          "type": "uint256"
        },
        {
          "internalType": "uint256",
          "name": "amountAVAX",
          "type": "uint256"
        },
        {
          "internalType": "uint256",
          "name": "liquidity",
          "type": "uint256"
        }
      ],
      "stateMutability": "payable",
      "type": "function"
    },
    {
      "inputs": [],
      "name": "factory",
      "outputs": [
        {
          "internalType": "address",
          "name": "",
          "type": "address"
        }
      ],
      "stateMutability": "view",
      "type": "function"
    },
    {
      "inputs": [
        {
          "internalType": "uint256",
          "name": "amountOut",
          "type": "uint256"
        },
        {
          "internalType": "uint256",
          "name": "reserveIn",
          "type": "uint256"
        },
        {
          "internalType": "uint256",
          "name": "reserveOut",
          "type": "uint256"
        }
      ],
      "name": "getAmountIn",
      "outputs": [
        {
          "internalType": "uint256",
          "name": "amountIn",
          "type": "uint256"
        }
      ],
      "stateMutability": "pure",
      "type": "function"
    },
    {
      "inputs": [
        {
          "internalType": "uint256",
          "name": "amountIn",
          "type": "uint256"
        },
        {
          "internalType": "uint256",
          "name": "reserveIn",
          "type": "uint256"
        },
        {
          "internalType": "uint256",
          "name": "reserveOut",
          "type": "uint256"
        }
      ],
      "name": "getAmountOut",
      "outputs": [
        {
          "internalType": "uint256",
          "name": "amountOut",
          "type": "uint256"
        }
      ],
      "stateMutability": "pure",
      "type": "function"
    },
    {
      "inputs": [
        {
          "internalType": "uint256",
          "name": "amountOut",
          "type": "uint256"
        },
        {
          "internalType": "address[]",
          "name": "path",
          "type": "address[]"
        }
      ],
      "name": "getAmountsIn",
      "outputs": [
        {
          "internalType": "uint256[]",
          "name": "amounts",
          "type": "uint256[]"
        }
      ],
      "stateMutability": "view",
      "type": "function"
    },
    {
      "inputs": [
        {
          "internalType": "uint256",
          "name": "amountIn",
          "type": "uint256"
        },
        {
          "internalType": "address[]",
          "name": "path",
          "type": "address[]"
        }
      ],
      "name": "getAmountsOut",
      "outputs": [
        {
          "internalType": "uint256[]",
          "name": "amounts",
          "type": "uint256[]"
        }
      ],
      "stateMutability": "view",
      "type": "function"
    },
    {
      "inputs": [
        {
          "internalType": "uint256",
          "name": "amountA",
          "type": "uint256"
        },
        {
          "internalType": "uint256",
          "name": "reserveA",
          "type": "uint256"
        },
        {
          "internalType": "uint256",
          "name": "reserveB",
          "type": "uint256"
        }
      ],
      "name": "quote",
      "outputs": [
        {
          "internalType": "uint256",
          "name": "amountB",
          "type": "uint256"
        }
      ],
      "stateMutability": "pure",
      "type": "function"
    },
    {
      "inputs": [
        {
          "internalType": "address",
          "name": "tokenA",
          "type": "address"
        },
        {
          "internalType": "address",
          "name": "tokenB",
          "type": "address"
        },
        {
          "internalType": "uint256",
          "name": "liquidity",
          "type": "uint256"
        },
        {
          "internalType": "uint256",
          "name": "amountAMin",
          "type": "uint256"
        },
        {
          "internalType": "uint256",
          "name": "amountBMin",
          "type": "uint256"
        },
        {
          "internalType": "address",
          "name": "to",
          "type": "address"
        },
        {
          "internalType": "uint256",
          "name": "deadline",
          "type": "uint256"
        }
      ],
      "name": "removeLiquidity",
      "outputs": [
        {
          "internalType": "uint256",
          "name": "amountA",
          "type": "uint256"
        },
        {
          "internalType": "uint256",
          "name": "amountB",
          "type": "uint256"
        }
      ],
      "stateMutability": "nonpayable",
      "type": "function"
    },
    {
      "inputs": [
        {
          "internalType": "address",
          "name": "token",
          "type": "address"
        },
        {
          "internalType": "uint256",
          "name": "liquidity",
          "type": "uint256"
        },
        {
          "internalType": "uint256",
          "name": "amountTokenMin",
          "type": "uint256"
        },
        {
          "internalType": "uint256",
          "name": "amountAVAXMin",
          "type": "uint256"
        },
        {
          "internalType": "address",
          "name": "to",
          "type": "address"
        },
        {
          "internalType": "uint256",
          "name": "deadline",
          "type": "uint256"
        }
      ],
      "name": "removeLiquidityAVAX",
      "outputs": [
        {
          "internalType": "uint256",
          "name": "amountToken",
          "type": "uint256"
        },
        {
          "internalType": "uint256",
          "name": "amountAVAX",
          "type": "uint256"
        }
      ],
      "stateMutability": "nonpayable",
      "type": "function"
    },
    {
      "inputs": [
        {
          "internalType": "address",
          "name": "token",
          "type": "address"
        },
        {
          "internalType": "uint256",
          "name": "liquidity",
          "type": "uint256"
        },
        {
          "internalType": "uint256",
          "name": "amountTokenMin",
          "type": "uint256"
        },
        {
          "internalType": "uint256",
          "name": "amountAVAXMin",
          "type": "uint256"
        },
        {
          "internalType": "address",
          "name": "to",
          "type": "address"
        },
        {
          "internalType": "uint256",
          "name": "deadline",
          "type": "uint256"
        }
      ],
      "name": "removeLiquidityAVAXSupportingFeeOnTransferTokens",
      "outputs": [
        {
          "internalType": "uint256",
          "name": "amountAVAX",
          "type": "uint256"
        }
      ],
      "stateMutability": "nonpayable",
      "type": "function"
    },
    {
      "inputs": [
        {
          "internalType": "address",
          "name": "token",
          "type": "address"
        },
        {
          "internalType": "uint256",
          "name": "liquidity",
          "type": "uint256"
        },
        {
          "internalType": "uint256",
          "name": "amountTokenMin",
          "type": "uint256"
        },
        {
          "internalType": "uint256",
          "name": "amountAVAXMin",
          "type": "uint256"
        },
        {
          "internalType": "address",
          "name": "to",
          "type": "address"
        },
        {
          "internalType": "uint256",
          "name": "deadline",
          "type": "uint256"
        },
        {
          "internalType": "bool",
          "name": "approveMax",
          "type": "bool"
        },
        {
          "internalType": "uint8",
          "name": "v",
          "type": "uint8"
        },
        {
          "internalType": "bytes32",
          "name": "r",
          "type": "bytes32"
        },
        {
          "internalType": "bytes32",
          "name": "s",
          "type": "bytes32"
        }
      ],
      "name": "removeLiquidityAVAXWithPermit",
      "outputs": [
        {
          "internalType": "uint256",
          "name": "amountToken",
          "type": "uint256"
        },
        {
          "internalType": "uint256",
          "name": "amountAVAX",
          "type": "uint256"
        }
      ],
      "stateMutability": "nonpayable",
      "type": "function"
    },
    {
      "inputs": [
        {
          "internalType": "address",
          "name": "token",
          "type": "address"
        },
        {
          "internalType": "uint256",
          "name": "liquidity",
          "type": "uint256"
        },
        {
          "internalType": "uint256",
          "name": "amountTokenMin",
          "type": "uint256"
        },
        {
          "internalType": "uint256",
          "name": "amountAVAXMin",
          "type": "uint256"
        },
        {
          "internalType": "address",
          "name": "to",
          "type": "address"
        },
        {
          "internalType": "uint256",
          "name": "deadline",
          "type": "uint256"
        },
        {
          "internalType": "bool",
          "name": "approveMax",
          "type": "bool"
        },
        {
          "internalType": "uint8",
          "name": "v",
          "type": "uint8"
        },
        {
          "internalType": "bytes32",
          "name": "r",
          "type": "bytes32"
        },
        {
          "internalType": "bytes32",
          "name": "s",
          "type": "bytes32"
        }
      ],
      "name": "removeLiquidityAVAXWithPermitSupportingFeeOnTransferTokens",
      "outputs": [
        {
          "internalType": "uint256",
          "name": "amountAVAX",
          "type": "uint256"
        }
      ],
      "stateMutability": "nonpayable",
      "type": "function"
    },
    {
      "inputs": [
        {
          "internalType": "address",
          "name": "tokenA",
          "type": "address"
        },
        {
          "internalType": "address",
          "name": "tokenB",
          "type": "address"
        },
        {
          "internalType": "uint256",
          "name": "liquidity",
          "type": "uint256"
        },
        {
          "internalType": "uint256",
          "name": "amountAMin",
          "type": "uint256"
        },
        {
          "internalType": "uint256",
          "name": "amountBMin",
          "type": "uint256"
        },
        {
          "internalType": "address",
          "name": "to",
          "type": "address"
        },
        {
          "internalType": "uint256",
          "name": "deadline",
          "type": "uint256"
        },
        {
          "internalType": "bool",
          "name": "approveMax",
          "type": "bool"
        },
        {
          "internalType": "uint8",
          "name": "v",
          "type": "uint8"
        },
        {
          "internalType": "bytes32",
          "name": "r",
          "type": "bytes32"
        },
        {
          "internalType": "bytes32",
          "name": "s",
          "type": "bytes32"
        }
      ],
      "name": "removeLiquidityWithPermit",
      "outputs": [
        {
          "internalType": "uint256",
          "name": "amountA",
          "type": "uint256"
        },
        {
          "internalType": "uint256",
          "name": "amountB",
          "type": "uint256"
        }
      ],
      "stateMutability": "nonpayable",
      "type": "function"
    },
    {
      "inputs": [
        {
          "internalType": "uint256",
          "name": "amountOut",
          "type": "uint256"
        },
        {
          "internalType": "address[]",
          "name": "path",
          "type": "address[]"
        },
        {
          "internalType": "address",
          "name": "to",
          "type": "address"
        },
        {
          "internalType": "uint256",
          "name": "deadline",
          "type": "uint256"
        }
      ],
      "name": "swapAVAXForExactTokens",
      "outputs": [
        {
          "internalType": "uint256[]",
          "name": "amounts",
          "type": "uint256[]"
        }
      ],
      "stateMutability": "payable",
      "type": "function"
    },
    {
      "inputs": [
        {
          "internalType": "uint256",
          "name": "amountOutMin",
          "type": "uint256"
        },
        {
          "internalType": "address[]",
          "name": "path",
          "type": "address[]"
        },
        {
          "internalType": "address",
          "name": "to",
          "type": "address"
        },
        {
          "internalType": "uint256",
          "name": "deadline",
          "type": "uint256"
        }
      ],
      "name": "swapExactAVAXForTokens",
      "outputs": [
        {
          "internalType": "uint256[]",
          "name": "amounts",
          "type": "uint256[]"
        }
      ],
      "stateMutability": "payable",
      "type": "function"
    },
    {
      "inputs": [
        {
          "internalType": "uint256",
          "name": "amountOutMin",
          "type": "uint256"
        },
        {
          "internalType": "address[]",
          "name": "path",
          "type": "address[]"
        },
        {
          "internalType": "address",
          "name": "to",
          "type": "address"
        },
        {
          "internalType": "uint256",
          "name": "deadline",
          "type": "uint256"
        }
      ],
      "name": "swapExactAVAXForTokensSupportingFeeOnTransferTokens",
      "outputs": [],
      "stateMutability": "payable",
      "type": "function"
    },
    {
      "inputs": [
        {
          "internalType": "uint256",
          "name": "amountIn",
          "type": "uint256"
        },
        {
          "internalType": "uint256",
          "name": "amountOutMin",
          "type": "uint256"
        },
        {
          "internalType": "address[]",
          "name": "path",
          "type": "address[]"
        },
        {
          "internalType": "address",
          "name": "to",
          "type": "address"
        },
        {
          "internalType": "uint256",
          "name": "deadline",
          "type": "uint256"
        }
      ],
      "name": "swapExactTokensForAVAX",
      "outputs": [
        {
          "internalType": "uint256[]",
          "name": "amounts",
          "type": "uint256[]"
        }
      ],
      "stateMutability": "nonpayable",
      "type": "function"
    },
    {
      "inputs": [
        {
          "internalType": "uint256",
          "name": "amountIn",
          "type": "uint256"
        },
        {
          "internalType": "uint256",
          "name": "amountOutMin",
          "type": "uint256"
        },
        {
          "internalType": "address[]",
          "name": "path",
          "type": "address[]"
        },
        {
          "internalType": "address",
          "name": "to",
          "type": "address"
        },
        {
          "internalType": "uint256",
          "name": "deadline",
          "type": "uint256"
        }
      ],
      "name": "swapExactTokensForAVAXSupportingFeeOnTransferTokens",
      "outputs": [],
      "stateMutability": "nonpayable",
      "type": "function"
    },
    {
      "inputs": [
        {
          "internalType": "uint256",
          "name": "amountIn",
          "type": "uint256"
        },
        {
          "internalType": "uint256",
          "name": "amountOutMin",
          "type": "uint256"
        },
        {
          "internalType": "address[]",
          "name": "path",
          "type": "address[]"
        },
        {
          "internalType": "address",
          "name": "to",
          "type": "address"
        },
        {
          "internalType": "uint256",
          "name": "deadline",
          "type": "uint256"
        }
      ],
      "name": "swapExactTokensForTokens",
      "outputs": [
        {
          "internalType": "uint256[]",
          "name": "amounts",
          "type": "uint256[]"
        }
      ],
      "stateMutability": "nonpayable",
      "type": "function"
    },
    {
      "inputs": [
        {
          "internalType": "uint256",
          "name": "amountIn",
          "type": "uint256"
        },
        {
          "internalType": "uint256",
          "name": "amountOutMin",
          "type": "uint256"
        },
        {
          "internalType": "address[]",
          "name": "path",
          "type": "address[]"
        },
        {
          "internalType": "address",
          "name": "to",
          "type": "address"
        },
        {
          "internalType": "uint256",
          "name": "deadline",
          "type": "uint256"
        }
      ],
      "name": "swapExactTokensForTokensSupportingFeeOnTransferTokens",
      "outputs": [],
      "stateMutability": "nonpayable",
      "type": "function"
    },
    {
      "inputs": [
        {
          "internalType": "uint256",
          "name": "amountOut",
          "type": "uint256"
        },
        {
          "internalType": "uint256",
          "name": "amountInMax",
          "type": "uint256"
        },
        {
          "internalType": "address[]",
          "name": "path",
          "type": "address[]"
        },
        {
          "internalType": "address",
          "name": "to",
          "type": "address"
        },
        {
          "internalType": "uint256",
          "name": "deadline",
          "type": "uint256"
        }
      ],
      "name": "swapTokensForExactAVAX",
      "outputs": [
        {
          "internalType": "uint256[]",
          "name": "amounts",
          "type": "uint256[]"
        }
      ],
      "stateMutability": "nonpayable",
      "type": "function"
    },
    {
      "inputs": [
        {
          "internalType": "uint256",
          "name": "amountOut",
          "type": "uint256"
        },
        {
          "internalType": "uint256",
          "name": "amountInMax",
          "type": "uint256"
        },
        {
          "internalType": "address[]",
          "name": "path",
          "type": "address[]"
        },
        {
          "internalType": "address",
          "name": "to",
          "type": "address"
        },
        {
          "internalType": "uint256",
          "name": "deadline",
          "type": "uint256"
        }
      ],
      "name": "swapTokensForExactTokens",
      "outputs": [
        {
          "internalType": "uint256[]",
          "name": "amounts",
          "type": "uint256[]"
        }
      ],
      "stateMutability": "nonpayable",
      "type": "function"
    },
    {
      "stateMutability": "payable",
      "type": "receive"
    }
  ],
  "bytecode": "0x60c060405234801561001057600080fd5b5060405162004823380380620048238339818101604052604081101561003557600080fd5b5080516020909101516001600160601b0319606092831b8116608052911b1660a05260805160601c60a05160601c61469e620001856000398061019f5280610e485280610f7d5280610fb8528061151352806116b5528061176b52806117d95280611888528061195c5280611a685280611b1e5280611bf45280611e905280611fe5528061206d5280612210528061233c5280612494528061251c528061290a52806129b15280612a255280612e1a5280612e705280612ea45280612f18525080610cf35280610d2c5280610e265280611095528061116c528061129852806115b35280611c945280611d9a5280611f35528061209f52806121ee52806123e1528061254e52806126aa52806128a25280612a575280612c695280612cf25280612e4e528061392a528061396d5280613b185280613c9e52806140d652806141845280614204525061469e6000f3fe60806040526004361061018f5760003560e01c806385f8c259116100d6578063baa2abde1161007f578063d06ca61f11610059578063d06ca61f14610b5c578063e8e3370014610c11578063f91b3f7214610c91576101c8565b8063baa2abde14610a66578063c45a015514610ac3578063c57559dd14610ad8576101c8565b80639fc27226116100b05780639fc2722614610939578063a2a1623d146109ac578063ad615dec14610a30576101c8565b806385f8c259146107e95780638803dbee1461081f5780638a657e67146108b5576101c8565b80635c11d7951161013857806373bc79cf1161011257806373bc79cf1461066a578063762b1562146106bd5780637a42416a14610753576101c8565b80635c11d7951461050d578063676528d1146105a357806373b295c214610639576101c8565b80632c407024116101695780632c407024146103b157806333c6b7251461042457806338ed173914610477576101c8565b8063054d50d4146101cd5780631f00ca74146102155780632195995c1461031a576101c8565b366101c857336001600160a01b037f000000000000000000000000000000000000000000000000000000000000000016146101c657fe5b005b600080fd5b3480156101d957600080fd5b50610203600480360360608110156101f057600080fd5b5080359060208101359060400135610cd7565b60408051918252519081900360200190f35b34801561022157600080fd5b506102ca6004803603604081101561023857600080fd5b81359190810190604081016020820135600160201b81111561025957600080fd5b82018360208201111561026b57600080fd5b803590602001918460208302840111600160201b8311171561028c57600080fd5b919080806020026020016040519081016040528093929190818152602001838360200280828437600092019190915250929550610cec945050505050565b60408051602080825283518183015283519192839290830191858101910280838360005b838110156103065781810151838201526020016102ee565b505050509050019250505060405180910390f35b34801561032657600080fd5b50610398600480360361016081101561033e57600080fd5b506001600160a01b038135811691602081013582169160408201359160608101359160808201359160a08101359091169060c08101359060e081013515159060ff6101008201351690610120810135906101400135610d22565b6040805192835260208301919091528051918290030190f35b3480156103bd57600080fd5b5061039860048036036101408110156103d557600080fd5b506001600160a01b0381358116916020810135916040820135916060810135916080820135169060a08101359060c081013515159060ff60e08201351690610100810135906101200135610e1c565b34801561043057600080fd5b50610398600480360360c081101561044757600080fd5b506001600160a01b0381358116916020810135916040820135916060810135916080820135169060a00135610f30565b34801561048357600080fd5b506102ca600480360360a081101561049a57600080fd5b813591602081013591810190606081016040820135600160201b8111156104c057600080fd5b8201836020820111156104d257600080fd5b803590602001918460208302840111600160201b831117156104f357600080fd5b91935091506001600160a01b03813516906020013561104a565b34801561051957600080fd5b506101c6600480360360a081101561053057600080fd5b813591602081013591810190606081016040820135600160201b81111561055657600080fd5b82018360208201111561056857600080fd5b803590602001918460208302840111600160201b8311171561058957600080fd5b91935091506001600160a01b03813516906020013561122e565b3480156105af57600080fd5b506102ca600480360360a08110156105c657600080fd5b813591602081013591810190606081016040820135600160201b8111156105ec57600080fd5b8201836020820111156105fe57600080fd5b803590602001918460208302840111600160201b8311171561061f57600080fd5b91935091506001600160a01b0381351690602001356114c3565b34801561064557600080fd5b5061064e611769565b604080516001600160a01b039092168252519081900360200190f35b34801561067657600080fd5b50610203600480360360c081101561068d57600080fd5b506001600160a01b0381358116916020810135916040820135916060810135916080820135169060a0013561178d565b3480156106c957600080fd5b506101c6600480360360a08110156106e057600080fd5b813591602081013591810190606081016040820135600160201b81111561070657600080fd5b82018360208201111561071857600080fd5b803590602001918460208302840111600160201b8311171561073957600080fd5b91935091506001600160a01b03813516906020013561190e565b34801561075f57600080fd5b506102ca600480360360a081101561077657600080fd5b813591602081013591810190606081016040820135600160201b81111561079c57600080fd5b8201836020820111156107ae57600080fd5b803590602001918460208302840111600160201b831117156107cf57600080fd5b91935091506001600160a01b038135169060200135611ba4565b3480156107f557600080fd5b506102036004803603606081101561080c57600080fd5b5080359060208101359060400135611d42565b34801561082b57600080fd5b506102ca600480360360a081101561084257600080fd5b813591602081013591810190606081016040820135600160201b81111561086857600080fd5b82018360208201111561087a57600080fd5b803590602001918460208302840111600160201b8311171561089b57600080fd5b91935091506001600160a01b038135169060200135611d4f565b6102ca600480360360808110156108cb57600080fd5b81359190810190604081016020820135600160201b8111156108ec57600080fd5b8201836020820111156108fe57600080fd5b803590602001918460208302840111600160201b8311171561091f57600080fd5b91935091506001600160a01b038135169060200135611e48565b34801561094557600080fd5b50610203600480360361014081101561095d57600080fd5b506001600160a01b0381358116916020810135916040820135916060810135916080820135169060a08101359060c081013515159060ff60e082013516906101008101359061012001356121e6565b6102ca600480360360808110156109c257600080fd5b81359190810190604081016020820135600160201b8111156109e357600080fd5b8201836020820111156109f557600080fd5b803590602001918460208302840111600160201b83111715610a1657600080fd5b91935091506001600160a01b0381351690602001356122f4565b348015610a3c57600080fd5b5061020360048036036060811015610a5357600080fd5b508035906020810135906040013561264f565b348015610a7257600080fd5b50610398600480360360e0811015610a8957600080fd5b506001600160a01b038135811691602081013582169160408201359160608101359160808201359160a08101359091169060c0013561265c565b348015610acf57600080fd5b5061064e6128a0565b6101c660048036036080811015610aee57600080fd5b81359190810190604081016020820135600160201b811115610b0f57600080fd5b820183602082011115610b2157600080fd5b803590602001918460208302840111600160201b83111715610b4257600080fd5b91935091506001600160a01b0381351690602001356128c4565b348015610b6857600080fd5b506102ca60048036036040811015610b7f57600080fd5b81359190810190604081016020820135600160201b811115610ba057600080fd5b820183602082011115610bb257600080fd5b803590602001918460208302840111600160201b83111715610bd357600080fd5b919080806020026020016040519081016040528093929190818152602001838360200280828437600092019190915250929550612c62945050505050565b348015610c1d57600080fd5b50610c736004803603610100811015610c3557600080fd5b506001600160a01b038135811691602081013582169160408201359160608101359160808201359160a08101359160c0820135169060e00135612c8f565b60408051938452602084019290925282820152519081900360600190f35b610c73600480360360c0811015610ca757600080fd5b506001600160a01b0381358116916020810135916040820135916060810135916080820135169060a00135612dcb565b6000610ce4848484613070565b949350505050565b6060610d197f00000000000000000000000000000000000000000000000000000000000000008484613160565b90505b92915050565b6000806000610d527f00000000000000000000000000000000000000000000000000000000000000008f8f6132ad565b9050600087610d61578c610d65565b6000195b6040805163d505accf60e01b815233600482015230602482015260448101839052606481018c905260ff8a16608482015260a4810189905260c4810188905290519192506001600160a01b0384169163d505accf9160e48082019260009290919082900301818387803b158015610ddb57600080fd5b505af1158015610def573d6000803e3d6000fd5b50505050610e028f8f8f8f8f8f8f61265c565b809450819550505050509b509b9950505050505050505050565b6000806000610e6c7f00000000000000000000000000000000000000000000000000000000000000008e7f00000000000000000000000000000000000000000000000000000000000000006132ad565b9050600087610e7b578c610e7f565b6000195b6040805163d505accf60e01b815233600482015230602482015260448101839052606481018c905260ff8a16608482015260a4810189905260c4810188905290519192506001600160a01b0384169163d505accf9160e48082019260009290919082900301818387803b158015610ef557600080fd5b505af1158015610f09573d6000803e3d6000fd5b50505050610f1b8e8e8e8e8e8e610f30565b909f909e509c50505050505050505050505050565b6000808242811015610f77576040805162461bcd60e51b815260206004820152601660248201526000805160206145ff833981519152604482015290519081900360640190fd5b610fa6897f00000000000000000000000000000000000000000000000000000000000000008a8a8a308a61265c565b9093509150610fb6898685613385565b7f00000000000000000000000000000000000000000000000000000000000000006001600160a01b0316632e1a7d4d836040518263ffffffff1660e01b815260040180828152602001915050600060405180830381600087803b15801561101c57600080fd5b505af1158015611030573d6000803e3d6000fd5b5050505061103e85836134ef565b50965096945050505050565b60608142811015611090576040805162461bcd60e51b815260206004820152601660248201526000805160206145ff833981519152604482015290519081900360640190fd5b6110ee7f0000000000000000000000000000000000000000000000000000000000000000898888808060200260200160405190810160405280939291908181526020018383602002808284376000920191909152506135e792505050565b9150868260018451038151811061110157fe5b602002602001015110156111465760405162461bcd60e51b815260040180806020018281038252602981526020018061453b6029913960400191505060405180910390fd5b6111e48686600081811061115657fe5b905060200201356001600160a01b0316336111ca7f00000000000000000000000000000000000000000000000000000000000000008a8a600081811061119857fe5b905060200201356001600160a01b03168b8b60018181106111b557fe5b905060200201356001600160a01b03166132ad565b856000815181106111d757fe5b602002602001015161371e565b6112238287878080602002602001604051908101604052809392919081815260200183836020028082843760009201919091525089925061387b915050565b509695505050505050565b8042811015611272576040805162461bcd60e51b815260206004820152601660248201526000805160206145ff833981519152604482015290519081900360640190fd5b6112e78585600081811061128257fe5b905060200201356001600160a01b0316336112e17f0000000000000000000000000000000000000000000000000000000000000000898960008181106112c457fe5b905060200201356001600160a01b03168a8a60018181106111b557fe5b8a61371e565b6000858560001981018181106112f957fe5b905060200201356001600160a01b03166001600160a01b03166370a08231856040518263ffffffff1660e01b815260040180826001600160a01b03166001600160a01b0316815260200191505060206040518083038186803b15801561135e57600080fd5b505afa158015611372573d6000803e3d6000fd5b505050506040513d602081101561138857600080fd5b505160408051602088810282810182019093528882529293506113ca929091899189918291850190849080828437600092019190915250889250613ac1915050565b8661147c82888860001981018181106113df57fe5b905060200201356001600160a01b03166001600160a01b03166370a08231886040518263ffffffff1660e01b815260040180826001600160a01b03166001600160a01b0316815260200191505060206040518083038186803b15801561144457600080fd5b505afa158015611458573d6000803e3d6000fd5b505050506040513d602081101561146e57600080fd5b50519063ffffffff613dd316565b10156114b95760405162461bcd60e51b815260040180806020018281038252602981526020018061453b6029913960400191505060405180910390fd5b5050505050505050565b60608142811015611509576040805162461bcd60e51b815260206004820152601660248201526000805160206145ff833981519152604482015290519081900360640190fd5b6001600160a01b037f0000000000000000000000000000000000000000000000000000000000000000168686600019810181811061154357fe5b905060200201356001600160a01b03166001600160a01b0316146115ae576040805162461bcd60e51b815260206004820152601b60248201527f4176616361646f526f757465723a20494e56414c49445f504154480000000000604482015290519081900360640190fd5b61160c7f0000000000000000000000000000000000000000000000000000000000000000898888808060200260200160405190810160405280939291908181526020018383602002808284376000920191909152506135e792505050565b9150868260018451038151811061161f57fe5b602002602001015110156116645760405162461bcd60e51b815260040180806020018281038252602981526020018061453b6029913960400191505060405180910390fd5b6116748686600081811061115657fe5b6116b38287878080602002602001604051908101604052809392919081815260200183836020028082843760009201919091525030925061387b915050565b7f00000000000000000000000000000000000000000000000000000000000000006001600160a01b0316632e1a7d4d836001855103815181106116f257fe5b60200260200101516040518263ffffffff1660e01b815260040180828152602001915050600060405180830381600087803b15801561173057600080fd5b505af1158015611744573d6000803e3d6000fd5b50505050611223848360018551038151811061175c57fe5b60200260200101516134ef565b7f000000000000000000000000000000000000000000000000000000000000000081565b600081428110156117d3576040805162461bcd60e51b815260206004820152601660248201526000805160206145ff833981519152604482015290519081900360640190fd5b611802887f0000000000000000000000000000000000000000000000000000000000000000898989308961265c565b604080516370a0823160e01b8152306004820152905191945061188692508a9187916001600160a01b038416916370a0823191602480820192602092909190829003018186803b15801561185557600080fd5b505afa158015611869573d6000803e3d6000fd5b505050506040513d602081101561187f57600080fd5b5051613385565b7f00000000000000000000000000000000000000000000000000000000000000006001600160a01b0316632e1a7d4d836040518263ffffffff1660e01b815260040180828152602001915050600060405180830381600087803b1580156118ec57600080fd5b505af1158015611900573d6000803e3d6000fd5b5050505061122384836134ef565b8042811015611952576040805162461bcd60e51b815260206004820152601660248201526000805160206145ff833981519152604482015290519081900360640190fd5b6001600160a01b037f0000000000000000000000000000000000000000000000000000000000000000168585600019810181811061198c57fe5b905060200201356001600160a01b03166001600160a01b0316146119f7576040805162461bcd60e51b815260206004820152601b60248201527f4176616361646f526f757465723a20494e56414c49445f504154480000000000604482015290519081900360640190fd5b611a078585600081811061128257fe5b611a45858580806020026020016040519081016040528093929190818152602001838360200280828437600092019190915250309250613ac1915050565b604080516370a0823160e01b815230600482015290516000916001600160a01b037f000000000000000000000000000000000000000000000000000000000000000016916370a0823191602480820192602092909190829003018186803b158015611aaf57600080fd5b505afa158015611ac3573d6000803e3d6000fd5b505050506040513d6020811015611ad957600080fd5b5051905086811015611b1c5760405162461bcd60e51b815260040180806020018281038252602981526020018061453b6029913960400191505060405180910390fd5b7f00000000000000000000000000000000000000000000000000000000000000006001600160a01b0316632e1a7d4d826040518263ffffffff1660e01b815260040180828152602001915050600060405180830381600087803b158015611b8257600080fd5b505af1158015611b96573d6000803e3d6000fd5b505050506114b984826134ef565b60608142811015611bea576040805162461bcd60e51b815260206004820152601660248201526000805160206145ff833981519152604482015290519081900360640190fd5b6001600160a01b037f00000000000000000000000000000000000000000000000000000000000000001686866000198101818110611c2457fe5b905060200201356001600160a01b03166001600160a01b031614611c8f576040805162461bcd60e51b815260206004820152601b60248201527f4176616361646f526f757465723a20494e56414c49445f504154480000000000604482015290519081900360640190fd5b611ced7f00000000000000000000000000000000000000000000000000000000000000008988888080602002602001604051908101604052809392919081815260200183836020028082843760009201919091525061316092505050565b91508682600081518110611cfd57fe5b602002602001015111156116645760405162461bcd60e51b81526004018080602001828103825260258152602001806145646025913960400191505060405180910390fd5b6000610ce4848484613e2b565b60608142811015611d95576040805162461bcd60e51b815260206004820152601660248201526000805160206145ff833981519152604482015290519081900360640190fd5b611df37f00000000000000000000000000000000000000000000000000000000000000008988888080602002602001604051908101604052809392919081815260200183836020028082843760009201919091525061316092505050565b91508682600081518110611e0357fe5b602002602001015111156111465760405162461bcd60e51b81526004018080602001828103825260258152602001806145646025913960400191505060405180910390fd5b60608142811015611e8e576040805162461bcd60e51b815260206004820152601660248201526000805160206145ff833981519152604482015290519081900360640190fd5b7f00000000000000000000000000000000000000000000000000000000000000006001600160a01b031686866000818110611ec557fe5b905060200201356001600160a01b03166001600160a01b031614611f30576040805162461bcd60e51b815260206004820152601b60248201527f4176616361646f526f757465723a20494e56414c49445f504154480000000000604482015290519081900360640190fd5b611f8e7f00000000000000000000000000000000000000000000000000000000000000008888888080602002602001604051908101604052809392919081815260200183836020028082843760009201919091525061316092505050565b91503482600081518110611f9e57fe5b60200260200101511115611fe35760405162461bcd60e51b81526004018080602001828103825260258152602001806145646025913960400191505060405180910390fd5b7f00000000000000000000000000000000000000000000000000000000000000006001600160a01b031663d0e30db08360008151811061201f57fe5b60200260200101516040518263ffffffff1660e01b81526004016000604051808303818588803b15801561205257600080fd5b505af1158015612066573d6000803e3d6000fd5b50505050507f00000000000000000000000000000000000000000000000000000000000000006001600160a01b031663a9059cbb6120cb7f0000000000000000000000000000000000000000000000000000000000000000898960008181106112c457fe5b846000815181106120d857fe5b60200260200101516040518363ffffffff1660e01b815260040180836001600160a01b03166001600160a01b0316815260200182815260200192505050602060405180830381600087803b15801561212f57600080fd5b505af1158015612143573d6000803e3d6000fd5b505050506040513d602081101561215957600080fd5b505161216157fe5b6121a08287878080602002602001604051908101604052809392919081815260200183836020028082843760009201919091525089925061387b915050565b816000815181106121ad57fe5b60200260200101513411156121dc576121dc33836000815181106121cd57fe5b602002602001015134036134ef565b5095945050505050565b6000806122347f00000000000000000000000000000000000000000000000000000000000000008d7f00000000000000000000000000000000000000000000000000000000000000006132ad565b9050600086612243578b612247565b6000195b6040805163d505accf60e01b815233600482015230602482015260448101839052606481018b905260ff8916608482015260a4810188905260c4810187905290519192506001600160a01b0384169163d505accf9160e48082019260009290919082900301818387803b1580156122bd57600080fd5b505af11580156122d1573d6000803e3d6000fd5b505050506122e38d8d8d8d8d8d61178d565b9d9c50505050505050505050505050565b6060814281101561233a576040805162461bcd60e51b815260206004820152601660248201526000805160206145ff833981519152604482015290519081900360640190fd5b7f00000000000000000000000000000000000000000000000000000000000000006001600160a01b03168686600081811061237157fe5b905060200201356001600160a01b03166001600160a01b0316146123dc576040805162461bcd60e51b815260206004820152601b60248201527f4176616361646f526f757465723a20494e56414c49445f504154480000000000604482015290519081900360640190fd5b61243a7f0000000000000000000000000000000000000000000000000000000000000000348888808060200260200160405190810160405280939291908181526020018383602002808284376000920191909152506135e792505050565b9150868260018451038151811061244d57fe5b602002602001015110156124925760405162461bcd60e51b815260040180806020018281038252602981526020018061453b6029913960400191505060405180910390fd5b7f00000000000000000000000000000000000000000000000000000000000000006001600160a01b031663d0e30db0836000815181106124ce57fe5b60200260200101516040518263ffffffff1660e01b81526004016000604051808303818588803b15801561250157600080fd5b505af1158015612515573d6000803e3d6000fd5b50505050507f00000000000000000000000000000000000000000000000000000000000000006001600160a01b031663a9059cbb61257a7f0000000000000000000000000000000000000000000000000000000000000000898960008181106112c457fe5b8460008151811061258757fe5b60200260200101516040518363ffffffff1660e01b815260040180836001600160a01b03166001600160a01b0316815260200182815260200192505050602060405180830381600087803b1580156125de57600080fd5b505af11580156125f2573d6000803e3d6000fd5b505050506040513d602081101561260857600080fd5b505161261057fe5b6121dc8287878080602002602001604051908101604052809392919081815260200183836020028082843760009201919091525089925061387b915050565b6000610ce4848484613f1b565b60008082428110156126a3576040805162461bcd60e51b815260206004820152601660248201526000805160206145ff833981519152604482015290519081900360640190fd5b60006126d07f00000000000000000000000000000000000000000000000000000000000000008c8c6132ad565b604080516323b872dd60e01b81523360048201526001600160a01b03831660248201819052604482018d9052915192935090916323b872dd916064808201926020929091908290030181600087803b15801561272b57600080fd5b505af115801561273f573d6000803e3d6000fd5b505050506040513d602081101561275557600080fd5b50506040805163226bf2d160e21b81526001600160a01b03888116600483015282516000938493928616926389afcb44926024808301939282900301818787803b1580156127a257600080fd5b505af11580156127b6573d6000803e3d6000fd5b505050506040513d60408110156127cc57600080fd5b508051602090910151909250905060006127e68e8e613fc7565b509050806001600160a01b03168e6001600160a01b03161461280957818361280c565b82825b90975095508a8710156128505760405162461bcd60e51b81526004018080602001828103825260248152602001806144f36024913960400191505060405180910390fd5b8986101561288f5760405162461bcd60e51b81526004018080602001828103825260248152602001806144cf6024913960400191505060405180910390fd5b505050505097509795505050505050565b7f000000000000000000000000000000000000000000000000000000000000000081565b8042811015612908576040805162461bcd60e51b815260206004820152601660248201526000805160206145ff833981519152604482015290519081900360640190fd5b7f00000000000000000000000000000000000000000000000000000000000000006001600160a01b03168585600081811061293f57fe5b905060200201356001600160a01b03166001600160a01b0316146129aa576040805162461bcd60e51b815260206004820152601b60248201527f4176616361646f526f757465723a20494e56414c49445f504154480000000000604482015290519081900360640190fd5b60003490507f00000000000000000000000000000000000000000000000000000000000000006001600160a01b031663d0e30db0826040518263ffffffff1660e01b81526004016000604051808303818588803b158015612a0a57600080fd5b505af1158015612a1e573d6000803e3d6000fd5b50505050507f00000000000000000000000000000000000000000000000000000000000000006001600160a01b031663a9059cbb612a837f0000000000000000000000000000000000000000000000000000000000000000898960008181106112c457fe5b836040518363ffffffff1660e01b815260040180836001600160a01b03166001600160a01b0316815260200182815260200192505050602060405180830381600087803b158015612ad357600080fd5b505af1158015612ae7573d6000803e3d6000fd5b505050506040513d6020811015612afd57600080fd5b5051612b0557fe5b600086866000198101818110612b1757fe5b905060200201356001600160a01b03166001600160a01b03166370a08231866040518263ffffffff1660e01b815260040180826001600160a01b03166001600160a01b0316815260200191505060206040518083038186803b158015612b7c57600080fd5b505afa158015612b90573d6000803e3d6000fd5b505050506040513d6020811015612ba657600080fd5b50516040805160208981028281018201909352898252929350612be89290918a918a918291850190849080828437600092019190915250899250613ac1915050565b8761147c8289896000198101818110612bfd57fe5b905060200201356001600160a01b03166001600160a01b03166370a08231896040518263ffffffff1660e01b815260040180826001600160a01b03166001600160a01b0316815260200191505060206040518083038186803b15801561144457600080fd5b6060610d197f000000000000000000000000000000000000000000000000000000000000000084846135e7565b60008060008342811015612cd8576040805162461bcd60e51b815260206004820152601660248201526000805160206145ff833981519152604482015290519081900360640190fd5b612ce68c8c8c8c8c8c6140a5565b90945092506000612d187f00000000000000000000000000000000000000000000000000000000000000008e8e6132ad565b9050612d268d33838861371e565b612d328c33838761371e565b806001600160a01b0316636a627842886040518263ffffffff1660e01b815260040180826001600160a01b03166001600160a01b03168152602001915050602060405180830381600087803b158015612d8a57600080fd5b505af1158015612d9e573d6000803e3d6000fd5b505050506040513d6020811015612db457600080fd5b5051949d939c50939a509198505050505050505050565b60008060008342811015612e14576040805162461bcd60e51b815260206004820152601660248201526000805160206145ff833981519152604482015290519081900360640190fd5b612e428a7f00000000000000000000000000000000000000000000000000000000000000008b348c8c6140a5565b90945092506000612e947f00000000000000000000000000000000000000000000000000000000000000008c7f00000000000000000000000000000000000000000000000000000000000000006132ad565b9050612ea28b33838861371e565b7f00000000000000000000000000000000000000000000000000000000000000006001600160a01b031663d0e30db0856040518263ffffffff1660e01b81526004016000604051808303818588803b158015612efd57600080fd5b505af1158015612f11573d6000803e3d6000fd5b50505050507f00000000000000000000000000000000000000000000000000000000000000006001600160a01b031663a9059cbb82866040518363ffffffff1660e01b815260040180836001600160a01b03166001600160a01b0316815260200182815260200192505050602060405180830381600087803b158015612f9657600080fd5b505af1158015612faa573d6000803e3d6000fd5b505050506040513d6020811015612fc057600080fd5b5051612fc857fe5b806001600160a01b0316636a627842886040518263ffffffff1660e01b815260040180826001600160a01b03166001600160a01b03168152602001915050602060405180830381600087803b15801561302057600080fd5b505af1158015613034573d6000803e3d6000fd5b505050506040513d602081101561304a57600080fd5b505192503484101561306257613062338534036134ef565b505096509650969350505050565b60008084116130b05760405162461bcd60e51b81526004018080602001828103825260298152602001806145896029913960400191505060405180910390fd5b6000831180156130c05750600082115b6130fb5760405162461bcd60e51b81526004018080602001828103825260268152602001806146436026913960400191505060405180910390fd5b600061310f856103e663ffffffff61431916565b90506000613123828563ffffffff61431916565b905060006131498361313d886103e863ffffffff61431916565b9063ffffffff61438516565b905080828161315457fe5b04979650505050505050565b60606002825110156131b9576040805162461bcd60e51b815260206004820152601c60248201527f4176616361646f4c6962726172793a20494e56414c49445f5041544800000000604482015290519081900360640190fd5b815167ffffffffffffffff811180156131d157600080fd5b506040519080825280602002602001820160405280156131fb578160200160208202803683370190505b509050828160018351038151811061320f57fe5b60209081029190910101528151600019015b80156132a55760008061325e8786600186038151811061323d57fe5b602002602001015187868151811061325157fe5b60200260200101516143dd565b9150915061328084848151811061327157fe5b60200260200101518383613e2b565b84600185038151811061328f57fe5b6020908102919091010152505060001901613221565b509392505050565b60008060006132bc8585613fc7565b604080516bffffffffffffffffffffffff19606094851b811660208084019190915293851b81166034830152825160288184030181526048830184528051908501207fff0000000000000000000000000000000000000000000000000000000000000060688401529a90941b9093166069840152607d8301989098527fc5d2460186f7233c927e7db2dcc703c0e500b653ca82273b7bfad8045d85a470609d808401919091528851808403909101815260bd909201909752805196019590952095945050505050565b604080516001600160a01b038481166024830152604480830185905283518084039091018152606490920183526020820180516001600160e01b031663a9059cbb60e01b178152925182516000946060949389169392918291908083835b602083106134025780518252601f1990920191602091820191016133e3565b6001836020036101000a0380198251168184511680821785525050505050509050019150506000604051808303816000865af19150503d8060008114613464576040519150601f19603f3d011682016040523d82523d6000602084013e613469565b606091505b5091509150818015613497575080511580613497575080806020019051602081101561349457600080fd5b50515b6134e8576040805162461bcd60e51b815260206004820152601f60248201527f5472616e7366657248656c7065723a205452414e534645525f4641494c454400604482015290519081900360640190fd5b5050505050565b604080516000808252602082019092526001600160a01b0384169083906040518082805190602001908083835b6020831061353b5780518252601f19909201916020918201910161351c565b6001836020036101000a03801982511681845116808217855250505050505090500191505060006040518083038185875af1925050503d806000811461359d576040519150601f19603f3d011682016040523d82523d6000602084013e6135a2565b606091505b50509050806135e25760405162461bcd60e51b81526004018080602001828103825260248152602001806145176024913960400191505060405180910390fd5b505050565b6060600282511015613640576040805162461bcd60e51b815260206004820152601c60248201527f4176616361646f4c6962726172793a20494e56414c49445f5041544800000000604482015290519081900360640190fd5b815167ffffffffffffffff8111801561365857600080fd5b50604051908082528060200260200182016040528015613682578160200160208202803683370190505b509050828160008151811061369357fe5b60200260200101818152505060005b60018351038110156132a5576000806136d8878685815181106136c157fe5b602002602001015187866001018151811061325157fe5b915091506136fa8484815181106136eb57fe5b60200260200101518383613070565b84846001018151811061370957fe5b602090810291909101015250506001016136a2565b604080516001600160a01b0385811660248301528481166044830152606480830185905283518084039091018152608490920183526020820180516001600160e01b03166323b872dd60e01b17815292518251600094606094938a169392918291908083835b602083106137a35780518252601f199092019160209182019101613784565b6001836020036101000a0380198251168184511680821785525050505050509050019150506000604051808303816000865af19150503d8060008114613805576040519150601f19603f3d011682016040523d82523d6000602084013e61380a565b606091505b5091509150818015613838575080511580613838575080806020019051602081101561383557600080fd5b50515b6138735760405162461bcd60e51b815260040180806020018281038252602481526020018061461f6024913960400191505060405180910390fd5b505050505050565b60005b6001835103811015613abb5760008084838151811061389957fe5b60200260200101518584600101815181106138b057fe5b60200260200101519150915060006138c88383613fc7565b50905060008785600101815181106138dc57fe5b60200260200101519050600080836001600160a01b0316866001600160a01b03161461390a5782600061390e565b6000835b91509150600060028a510388106139255788613966565b6139667f0000000000000000000000000000000000000000000000000000000000000000878c8b6002018151811061395957fe5b60200260200101516132ad565b90506139937f000000000000000000000000000000000000000000000000000000000000000088886132ad565b6001600160a01b031663022c0d9f84848460006040519080825280601f01601f1916602001820160405280156139d0576020820181803683370190505b506040518563ffffffff1660e01b815260040180858152602001848152602001836001600160a01b03166001600160a01b0316815260200180602001828103825283818151815260200191508051906020019080838360005b83811015613a41578181015183820152602001613a29565b50505050905090810190601f168015613a6e5780820380516001836020036101000a031916815260200191505b5095505050505050600060405180830381600087803b158015613a9057600080fd5b505af1158015613aa4573d6000803e3d6000fd5b50506001909901985061387e975050505050505050565b50505050565b60005b60018351038110156135e257600080848381518110613adf57fe5b6020026020010151858460010181518110613af657fe5b6020026020010151915091506000613b0e8383613fc7565b5090506000613b3e7f000000000000000000000000000000000000000000000000000000000000000085856132ad565b9050600080600080846001600160a01b0316630902f1ac6040518163ffffffff1660e01b815260040160606040518083038186803b158015613b7f57600080fd5b505afa158015613b93573d6000803e3d6000fd5b505050506040513d6060811015613ba957600080fd5b5080516020909101516dffffffffffffffffffffffffffff91821693501690506000806001600160a01b038a811690891614613be6578284613be9565b83835b91509150613c47828b6001600160a01b03166370a082318a6040518263ffffffff1660e01b815260040180826001600160a01b03166001600160a01b0316815260200191505060206040518083038186803b15801561144457600080fd5b9550613c54868383613070565b945050505050600080856001600160a01b0316886001600160a01b031614613c7e57826000613c82565b6000835b91509150600060028c51038a10613c99578a613ccd565b613ccd7f0000000000000000000000000000000000000000000000000000000000000000898e8d6002018151811061395957fe5b604080516000808252602082019283905263022c0d9f60e01b835260248201878152604483018790526001600160a01b038086166064850152608060848501908152845160a48601819052969750908c169563022c0d9f958a958a958a9591949193919260c486019290918190849084905b83811015613d57578181015183820152602001613d3f565b50505050905090810190601f168015613d845780820380516001836020036101000a031916815260200191505b5095505050505050600060405180830381600087803b158015613da657600080fd5b505af1158015613dba573d6000803e3d6000fd5b50506001909b019a50613ac49950505050505050505050565b80820382811115610d1c576040805162461bcd60e51b815260206004820152601560248201527f64732d6d6174682d7375622d756e646572666c6f770000000000000000000000604482015290519081900360640190fd5b6000808411613e6b5760405162461bcd60e51b815260040180806020018281038252602a8152602001806145d5602a913960400191505060405180910390fd5b600083118015613e7b5750600082115b613eb65760405162461bcd60e51b81526004018080602001828103825260268152602001806146436026913960400191505060405180910390fd5b6000613eda6103e8613ece868863ffffffff61431916565b9063ffffffff61431916565b90506000613ef46103e6613ece868963ffffffff613dd316565b9050613f116001828481613f0457fe5b049063ffffffff61438516565b9695505050505050565b6000808411613f5b5760405162461bcd60e51b81526004018080602001828103825260238152602001806145b26023913960400191505060405180910390fd5b600083118015613f6b5750600082115b613fa65760405162461bcd60e51b81526004018080602001828103825260268152602001806146436026913960400191505060405180910390fd5b82613fb7858463ffffffff61431916565b81613fbe57fe5b04949350505050565b600080826001600160a01b0316846001600160a01b0316141561401b5760405162461bcd60e51b81526004018080602001828103825260238152602001806144ac6023913960400191505060405180910390fd5b826001600160a01b0316846001600160a01b03161061403b57828461403e565b83835b90925090506001600160a01b03821661409e576040805162461bcd60e51b815260206004820152601c60248201527f4176616361646f4c6962726172793a205a45524f5f4144445245535300000000604482015290519081900360640190fd5b9250929050565b6040805163e6a4390560e01b81526001600160a01b03888116600483015287811660248301529151600092839283927f00000000000000000000000000000000000000000000000000000000000000009092169163e6a4390591604480820192602092909190829003018186803b15801561411f57600080fd5b505afa158015614133573d6000803e3d6000fd5b505050506040513d602081101561414957600080fd5b50516001600160a01b031614156141fc57604080516364e329cb60e11b81526001600160a01b038a81166004830152898116602483015291517f00000000000000000000000000000000000000000000000000000000000000009092169163c9c65396916044808201926020929091908290030181600087803b1580156141cf57600080fd5b505af11580156141e3573d6000803e3d6000fd5b505050506040513d60208110156141f957600080fd5b50505b60008061422a7f00000000000000000000000000000000000000000000000000000000000000008b8b6143dd565b9150915081600014801561423c575080155b1561424c5787935086925061430c565b6000614259898484613f1b565b90508781116142ac57858110156142a15760405162461bcd60e51b81526004018080602001828103825260248152602001806144cf6024913960400191505060405180910390fd5b88945092508261430a565b60006142b9898486613f1b565b9050898111156142c557fe5b878110156143045760405162461bcd60e51b81526004018080602001828103825260248152602001806144f36024913960400191505060405180910390fd5b94508793505b505b5050965096945050505050565b60008115806143345750508082028282828161433157fe5b04145b610d1c576040805162461bcd60e51b815260206004820152601460248201527f64732d6d6174682d6d756c2d6f766572666c6f77000000000000000000000000604482015290519081900360640190fd5b80820182811015610d1c576040805162461bcd60e51b815260206004820152601460248201527f64732d6d6174682d6164642d6f766572666c6f77000000000000000000000000604482015290519081900360640190fd5b60008060006143ec8585613fc7565b5090506000806143fd8888886132ad565b6001600160a01b0316630902f1ac6040518163ffffffff1660e01b815260040160606040518083038186803b15801561443557600080fd5b505afa158015614449573d6000803e3d6000fd5b505050506040513d606081101561445f57600080fd5b5080516020909101516dffffffffffffffffffffffffffff91821693501690506001600160a01b038781169084161461449957808261449c565b81815b9099909850965050505050505056fe4176616361646f4c6962726172793a204944454e544943414c5f4144445245535345534176616361646f526f757465723a20494e53554646494349454e545f425f414d4f554e544176616361646f526f757465723a20494e53554646494349454e545f415f414d4f554e545472616e7366657248656c7065723a20415641585f5452414e534645525f4641494c45444176616361646f526f757465723a20494e53554646494349454e545f4f55545055545f414d4f554e544176616361646f526f757465723a204558434553534956455f494e5055545f414d4f554e544176616361646f4c6962726172793a20494e53554646494349454e545f494e5055545f414d4f554e544176616361646f4c6962726172793a20494e53554646494349454e545f414d4f554e544176616361646f4c6962726172793a20494e53554646494349454e545f4f55545055545f414d4f554e544176616361646f526f757465723a2045585049524544000000000000000000005472616e7366657248656c7065723a205452414e534645525f46524f4d5f4641494c45444176616361646f4c6962726172793a20494e53554646494349454e545f4c4951554944495459a264697066735822122020bef34d68a767f664498697ed900e58b401a0446195bd52d5a8bd05f87c8a9f64736f6c63430006060033",
  "linkReferences": {},
  "deployedLinkReferences": {}
}